{
  "_format": "hh-sol-artifact-1",
  "contractName": "SampleImmutableERC1155Soulbound",
  "sourceName": "contracts/SampleImmutableERC1155Soulbound.sol",
  "abi": [
    {
      "inputs": [
        {
          "internalType": "address",
          "name": "owner",
          "type": "address"
        },
        {
          "internalType": "string",
          "name": "name",
          "type": "string"
        },
        {
          "internalType": "string",
          "name": "baseURI",
          "type": "string"
        },
        {
          "internalType": "string",
          "name": "contractURI",
          "type": "string"
        },
        {
          "internalType": "address",
          "name": "operatorAllowlist",
          "type": "address"
        },
        {
          "internalType": "address",
          "name": "royaltyReceiver",
          "type": "address"
        },
        {
          "internalType": "uint96",
          "name": "feeNumerator",
          "type": "uint96"
        }
      ],
      "stateMutability": "nonpayable",
      "type": "constructor"
    },
    {
      "inputs": [],
      "name": "AllowlistDoesNotImplementIOperatorAllowlist",
      "type": "error"
    },
    {
      "inputs": [
        {
          "internalType": "address",
          "name": "target",
          "type": "address"
        }
      ],
      "name": "ApproveTargetNotInAllowlist",
      "type": "error"
    },
    {
      "inputs": [
        {
          "internalType": "address",
          "name": "approver",
          "type": "address"
        }
      ],
      "name": "ApproverNotInAllowlist",
      "type": "error"
    },
    {
      "inputs": [
        {
          "internalType": "address",
          "name": "caller",
          "type": "address"
        }
      ],
      "name": "CallerNotInAllowlist",
      "type": "error"
    },
    {
      "inputs": [],
      "name": "InvalidShortString",
      "type": "error"
    },
    {
      "inputs": [],
      "name": "InvalidSignature",
      "type": "error"
    },
    {
      "inputs": [],
      "name": "PermitExpired",
      "type": "error"
    },
    {
      "inputs": [
        {
          "internalType": "string",
          "name": "str",
          "type": "string"
        }
      ],
      "name": "StringTooLong",
      "type": "error"
    },
    {
      "inputs": [],
      "name": "TokenSoulbound",
      "type": "error"
    },
    {
      "inputs": [
        {
          "internalType": "address",
          "name": "from",
          "type": "address"
        }
      ],
      "name": "TransferFromNotInAllowlist",
      "type": "error"
    },
    {
      "inputs": [
        {
          "internalType": "address",
          "name": "to",
          "type": "address"
        }
      ],
      "name": "TransferToNotInAllowlist",
      "type": "error"
    },
    {
      "anonymous": false,
      "inputs": [
        {
          "indexed": true,
          "internalType": "address",
          "name": "account",
          "type": "address"
        },
        {
          "indexed": true,
          "internalType": "address",
          "name": "operator",
          "type": "address"
        },
        {
          "indexed": false,
          "internalType": "bool",
          "name": "approved",
          "type": "bool"
        }
      ],
      "name": "ApprovalForAll",
      "type": "event"
    },
    {
      "anonymous": false,
      "inputs": [],
      "name": "EIP712DomainChanged",
      "type": "event"
    },
    {
      "anonymous": false,
      "inputs": [
        {
          "indexed": false,
          "internalType": "address",
          "name": "oldRegistry",
          "type": "address"
        },
        {
          "indexed": false,
          "internalType": "address",
          "name": "newRegistry",
          "type": "address"
        }
      ],
      "name": "OperatorAllowlistRegistryUpdated",
      "type": "event"
    },
    {
      "anonymous": false,
      "inputs": [
        {
          "indexed": true,
          "internalType": "bytes32",
          "name": "role",
          "type": "bytes32"
        },
        {
          "indexed": true,
          "internalType": "bytes32",
          "name": "previousAdminRole",
          "type": "bytes32"
        },
        {
          "indexed": true,
          "internalType": "bytes32",
          "name": "newAdminRole",
          "type": "bytes32"
        }
      ],
      "name": "RoleAdminChanged",
      "type": "event"
    },
    {
      "anonymous": false,
      "inputs": [
        {
          "indexed": true,
          "internalType": "bytes32",
          "name": "role",
          "type": "bytes32"
        },
        {
          "indexed": true,
          "internalType": "address",
          "name": "account",
          "type": "address"
        },
        {
          "indexed": true,
          "internalType": "address",
          "name": "sender",
          "type": "address"
        }
      ],
      "name": "RoleGranted",
      "type": "event"
    },
    {
      "anonymous": false,
      "inputs": [
        {
          "indexed": true,
          "internalType": "bytes32",
          "name": "role",
          "type": "bytes32"
        },
        {
          "indexed": true,
          "internalType": "address",
          "name": "account",
          "type": "address"
        },
        {
          "indexed": true,
          "internalType": "address",
          "name": "sender",
          "type": "address"
        }
      ],
      "name": "RoleRevoked",
      "type": "event"
    },
    {
      "anonymous": false,
      "inputs": [
        {
          "indexed": true,
          "internalType": "address",
          "name": "operator",
          "type": "address"
        },
        {
          "indexed": true,
          "internalType": "address",
          "name": "from",
          "type": "address"
        },
        {
          "indexed": true,
          "internalType": "address",
          "name": "to",
          "type": "address"
        },
        {
          "indexed": false,
          "internalType": "uint256[]",
          "name": "ids",
          "type": "uint256[]"
        },
        {
          "indexed": false,
          "internalType": "uint256[]",
          "name": "values",
          "type": "uint256[]"
        }
      ],
      "name": "TransferBatch",
      "type": "event"
    },
    {
      "anonymous": false,
      "inputs": [
        {
          "indexed": true,
          "internalType": "address",
          "name": "operator",
          "type": "address"
        },
        {
          "indexed": true,
          "internalType": "address",
          "name": "from",
          "type": "address"
        },
        {
          "indexed": true,
          "internalType": "address",
          "name": "to",
          "type": "address"
        },
        {
          "indexed": false,
          "internalType": "uint256",
          "name": "id",
          "type": "uint256"
        },
        {
          "indexed": false,
          "internalType": "uint256",
          "name": "value",
          "type": "uint256"
        }
      ],
      "name": "TransferSingle",
      "type": "event"
    },
    {
      "anonymous": false,
      "inputs": [
        {
          "indexed": false,
          "internalType": "string",
          "name": "value",
          "type": "string"
        },
        {
          "indexed": true,
          "internalType": "uint256",
          "name": "id",
          "type": "uint256"
        }
      ],
      "name": "URI",
      "type": "event"
    },
    {
      "inputs": [],
      "name": "DEFAULT_ADMIN_ROLE",
      "outputs": [
        {
          "internalType": "bytes32",
          "name": "",
          "type": "bytes32"
        }
      ],
      "stateMutability": "view",
      "type": "function"
    },
    {
      "inputs": [],
      "name": "DOMAIN_SEPARATOR",
      "outputs": [
        {
          "internalType": "bytes32",
          "name": "",
          "type": "bytes32"
        }
      ],
      "stateMutability": "view",
      "type": "function"
    },
    {
      "inputs": [],
      "name": "MINTER_ROLE",
      "outputs": [
        {
          "internalType": "bytes32",
          "name": "",
          "type": "bytes32"
        }
      ],
      "stateMutability": "view",
      "type": "function"
    },
    {
      "inputs": [
        {
          "internalType": "address",
          "name": "account",
          "type": "address"
        },
        {
          "internalType": "uint256",
          "name": "id",
          "type": "uint256"
        }
      ],
      "name": "balanceOf",
      "outputs": [
        {
          "internalType": "uint256",
          "name": "",
          "type": "uint256"
        }
      ],
      "stateMutability": "view",
      "type": "function"
    },
    {
      "inputs": [
        {
          "internalType": "address[]",
          "name": "accounts",
          "type": "address[]"
        },
        {
          "internalType": "uint256[]",
          "name": "ids",
          "type": "uint256[]"
        }
      ],
      "name": "balanceOfBatch",
      "outputs": [
        {
          "internalType": "uint256[]",
          "name": "",
          "type": "uint256[]"
        }
      ],
      "stateMutability": "view",
      "type": "function"
    },
    {
      "inputs": [],
      "name": "baseURI",
      "outputs": [
        {
          "internalType": "string",
          "name": "",
          "type": "string"
        }
      ],
      "stateMutability": "view",
      "type": "function"
    },
    {
      "inputs": [
        {
          "internalType": "address",
          "name": "account",
          "type": "address"
        },
        {
          "internalType": "uint256",
          "name": "id",
          "type": "uint256"
        },
        {
          "internalType": "uint256",
          "name": "value",
          "type": "uint256"
        }
      ],
      "name": "burn",
      "outputs": [],
      "stateMutability": "nonpayable",
      "type": "function"
    },
    {
      "inputs": [
        {
          "internalType": "address",
          "name": "account",
          "type": "address"
        },
        {
          "internalType": "uint256[]",
          "name": "ids",
          "type": "uint256[]"
        },
        {
          "internalType": "uint256[]",
          "name": "values",
          "type": "uint256[]"
        }
      ],
      "name": "burnBatch",
      "outputs": [],
      "stateMutability": "nonpayable",
      "type": "function"
    },
    {
      "inputs": [],
      "name": "contractURI",
      "outputs": [
        {
          "internalType": "string",
          "name": "",
          "type": "string"
        }
      ],
      "stateMutability": "view",
      "type": "function"
    },
    {
      "inputs": [],
      "name": "eip712Domain",
      "outputs": [
        {
          "internalType": "bytes1",
          "name": "fields",
          "type": "bytes1"
        },
        {
          "internalType": "string",
          "name": "name",
          "type": "string"
        },
        {
          "internalType": "string",
          "name": "version",
          "type": "string"
        },
        {
          "internalType": "uint256",
          "name": "chainId",
          "type": "uint256"
        },
        {
          "internalType": "address",
          "name": "verifyingContract",
          "type": "address"
        },
        {
          "internalType": "bytes32",
          "name": "salt",
          "type": "bytes32"
        },
        {
          "internalType": "uint256[]",
          "name": "extensions",
          "type": "uint256[]"
        }
      ],
      "stateMutability": "view",
      "type": "function"
    },
    {
      "inputs": [
        {
          "internalType": "uint256",
          "name": "id",
          "type": "uint256"
        }
      ],
      "name": "exists",
      "outputs": [
        {
          "internalType": "bool",
          "name": "",
          "type": "bool"
        }
      ],
      "stateMutability": "view",
      "type": "function"
    },
    {
      "inputs": [],
      "name": "getAdmins",
      "outputs": [
        {
          "internalType": "address[]",
          "name": "",
          "type": "address[]"
        }
      ],
      "stateMutability": "view",
      "type": "function"
    },
    {
      "inputs": [
        {
          "internalType": "bytes32",
          "name": "role",
          "type": "bytes32"
        }
      ],
      "name": "getRoleAdmin",
      "outputs": [
        {
          "internalType": "bytes32",
          "name": "",
          "type": "bytes32"
        }
      ],
      "stateMutability": "view",
      "type": "function"
    },
    {
      "inputs": [
        {
          "internalType": "bytes32",
          "name": "role",
          "type": "bytes32"
        },
        {
          "internalType": "uint256",
          "name": "index",
          "type": "uint256"
        }
      ],
      "name": "getRoleMember",
      "outputs": [
        {
          "internalType": "address",
          "name": "",
          "type": "address"
        }
      ],
      "stateMutability": "view",
      "type": "function"
    },
    {
      "inputs": [
        {
          "internalType": "bytes32",
          "name": "role",
          "type": "bytes32"
        }
      ],
      "name": "getRoleMemberCount",
      "outputs": [
        {
          "internalType": "uint256",
          "name": "",
          "type": "uint256"
        }
      ],
      "stateMutability": "view",
      "type": "function"
    },
    {
      "inputs": [
        {
          "internalType": "address",
          "name": "user",
          "type": "address"
        }
      ],
      "name": "grantMinterRole",
      "outputs": [],
      "stateMutability": "nonpayable",
      "type": "function"
    },
    {
      "inputs": [
        {
          "internalType": "bytes32",
          "name": "role",
          "type": "bytes32"
        },
        {
          "internalType": "address",
          "name": "account",
          "type": "address"
        }
      ],
      "name": "grantRole",
      "outputs": [],
      "stateMutability": "nonpayable",
      "type": "function"
    },
    {
      "inputs": [
        {
          "internalType": "bytes32",
          "name": "role",
          "type": "bytes32"
        },
        {
          "internalType": "address",
          "name": "account",
          "type": "address"
        }
      ],
      "name": "hasRole",
      "outputs": [
        {
          "internalType": "bool",
          "name": "",
          "type": "bool"
        }
      ],
      "stateMutability": "view",
      "type": "function"
    },
    {
      "inputs": [
        {
          "internalType": "address",
          "name": "account",
          "type": "address"
        },
        {
          "internalType": "address",
          "name": "operator",
          "type": "address"
        }
      ],
      "name": "isApprovedForAll",
      "outputs": [
        {
          "internalType": "bool",
          "name": "",
          "type": "bool"
        }
      ],
      "stateMutability": "view",
      "type": "function"
    },
    {
      "inputs": [
        {
          "internalType": "address",
          "name": "owner",
          "type": "address"
        }
      ],
      "name": "nonces",
      "outputs": [
        {
          "internalType": "uint256",
          "name": "",
          "type": "uint256"
        }
      ],
      "stateMutability": "view",
      "type": "function"
    },
    {
      "inputs": [],
      "name": "operatorAllowlist",
      "outputs": [
        {
          "internalType": "contract IOperatorAllowlist",
          "name": "",
          "type": "address"
        }
      ],
      "stateMutability": "view",
      "type": "function"
    },
    {
      "inputs": [
        {
          "internalType": "address",
          "name": "owner",
          "type": "address"
        },
        {
          "internalType": "address",
          "name": "spender",
          "type": "address"
        },
        {
          "internalType": "bool",
          "name": "approved",
          "type": "bool"
        },
        {
          "internalType": "uint256",
          "name": "deadline",
          "type": "uint256"
        },
        {
          "internalType": "bytes",
          "name": "sig",
          "type": "bytes"
        }
      ],
      "name": "permit",
      "outputs": [],
      "stateMutability": "nonpayable",
      "type": "function"
    },
    {
      "inputs": [
        {
          "internalType": "bytes32",
          "name": "role",
          "type": "bytes32"
        },
        {
          "internalType": "address",
          "name": "account",
          "type": "address"
        }
      ],
      "name": "renounceRole",
      "outputs": [],
      "stateMutability": "nonpayable",
      "type": "function"
    },
    {
      "inputs": [
        {
          "internalType": "address",
          "name": "user",
          "type": "address"
        }
      ],
      "name": "revokeMinterRole",
      "outputs": [],
      "stateMutability": "nonpayable",
      "type": "function"
    },
    {
      "inputs": [
        {
          "internalType": "bytes32",
          "name": "role",
          "type": "bytes32"
        },
        {
          "internalType": "address",
          "name": "account",
          "type": "address"
        }
      ],
      "name": "revokeRole",
      "outputs": [],
      "stateMutability": "nonpayable",
      "type": "function"
    },
    {
      "inputs": [
        {
          "internalType": "uint256",
          "name": "tokenId",
          "type": "uint256"
        },
        {
          "internalType": "uint256",
          "name": "salePrice",
          "type": "uint256"
        }
      ],
      "name": "royaltyInfo",
      "outputs": [
        {
          "internalType": "address",
          "name": "",
          "type": "address"
        },
        {
          "internalType": "uint256",
          "name": "",
          "type": "uint256"
        }
      ],
      "stateMutability": "view",
      "type": "function"
    },
    {
      "inputs": [
        {
          "internalType": "address",
          "name": "from",
          "type": "address"
        },
        {
          "internalType": "address",
          "name": "to",
          "type": "address"
        },
        {
          "internalType": "uint256[]",
          "name": "ids",
          "type": "uint256[]"
        },
        {
          "internalType": "uint256[]",
          "name": "amounts",
          "type": "uint256[]"
        },
        {
          "internalType": "bytes",
          "name": "data",
          "type": "bytes"
        }
      ],
      "name": "safeBatchTransferFrom",
      "outputs": [],
      "stateMutability": "nonpayable",
      "type": "function"
    },
    {
      "inputs": [
        {
          "internalType": "address",
          "name": "to",
          "type": "address"
        },
        {
          "internalType": "uint256",
          "name": "id",
          "type": "uint256"
        },
        {
          "internalType": "uint256",
          "name": "value",
          "type": "uint256"
        },
        {
          "internalType": "bytes",
          "name": "data",
          "type": "bytes"
        }
      ],
      "name": "safeMint",
      "outputs": [],
      "stateMutability": "nonpayable",
      "type": "function"
    },
    {
      "inputs": [
        {
          "internalType": "address",
          "name": "to",
          "type": "address"
        },
        {
          "internalType": "uint256[]",
          "name": "ids",
          "type": "uint256[]"
        },
        {
          "internalType": "uint256[]",
          "name": "values",
          "type": "uint256[]"
        },
        {
          "internalType": "bytes",
          "name": "data",
          "type": "bytes"
        }
      ],
      "name": "safeMintBatch",
      "outputs": [],
      "stateMutability": "nonpayable",
      "type": "function"
    },
    {
      "inputs": [
        {
          "internalType": "address",
          "name": "from",
          "type": "address"
        },
        {
          "internalType": "address",
          "name": "to",
          "type": "address"
        },
        {
          "internalType": "uint256",
          "name": "id",
          "type": "uint256"
        },
        {
          "internalType": "uint256",
          "name": "amount",
          "type": "uint256"
        },
        {
          "internalType": "bytes",
          "name": "data",
          "type": "bytes"
        }
      ],
      "name": "safeTransferFrom",
      "outputs": [],
      "stateMutability": "nonpayable",
      "type": "function"
    },
    {
      "inputs": [
        {
          "internalType": "address",
          "name": "operator",
          "type": "address"
        },
        {
          "internalType": "bool",
          "name": "approved",
          "type": "bool"
        }
      ],
      "name": "setApprovalForAll",
      "outputs": [],
      "stateMutability": "nonpayable",
      "type": "function"
    },
    {
      "inputs": [
        {
          "internalType": "string",
          "name": "baseURI_",
          "type": "string"
        }
      ],
      "name": "setBaseURI",
      "outputs": [],
      "stateMutability": "nonpayable",
      "type": "function"
    },
    {
      "inputs": [
        {
          "internalType": "string",
          "name": "contractURI_",
          "type": "string"
        }
      ],
      "name": "setContractURI",
      "outputs": [],
      "stateMutability": "nonpayable",
      "type": "function"
    },
    {
      "inputs": [
        {
          "internalType": "address",
          "name": "receiver",
          "type": "address"
        },
        {
          "internalType": "uint96",
          "name": "feeNumerator",
          "type": "uint96"
        }
      ],
      "name": "setDefaultRoyaltyReceiver",
      "outputs": [],
      "stateMutability": "nonpayable",
      "type": "function"
    },
    {
      "inputs": [
        {
          "internalType": "uint256",
          "name": "tokenId",
          "type": "uint256"
        },
        {
          "internalType": "address",
          "name": "receiver",
          "type": "address"
        },
        {
          "internalType": "uint96",
          "name": "feeNumerator",
          "type": "uint96"
        }
      ],
      "name": "setNFTRoyaltyReceiver",
      "outputs": [],
      "stateMutability": "nonpayable",
      "type": "function"
    },
    {
      "inputs": [
        {
          "internalType": "uint256[]",
          "name": "tokenIds",
          "type": "uint256[]"
        },
        {
          "internalType": "address",
          "name": "receiver",
          "type": "address"
        },
        {
          "internalType": "uint96",
          "name": "feeNumerator",
          "type": "uint96"
        }
      ],
      "name": "setNFTRoyaltyReceiverBatch",
      "outputs": [],
      "stateMutability": "nonpayable",
      "type": "function"
    },
    {
      "inputs": [
        {
          "internalType": "bytes4",
          "name": "interfaceId",
          "type": "bytes4"
        }
      ],
      "name": "supportsInterface",
      "outputs": [
        {
          "internalType": "bool",
          "name": "",
          "type": "bool"
        }
      ],
      "stateMutability": "view",
      "type": "function"
    },
    {
      "inputs": [
        {
          "internalType": "uint256",
          "name": "id",
          "type": "uint256"
        }
      ],
      "name": "totalSupply",
      "outputs": [
        {
          "internalType": "uint256",
          "name": "",
          "type": "uint256"
        }
      ],
      "stateMutability": "view",
      "type": "function"
    },
    {
      "inputs": [
        {
          "internalType": "uint256",
          "name": "",
          "type": "uint256"
        }
      ],
      "name": "uri",
      "outputs": [
        {
          "internalType": "string",
          "name": "",
          "type": "string"
        }
      ],
      "stateMutability": "view",
      "type": "function"
    }
  ],
  "bytecode": "0x6101806040527f3f43a9c6bafb5c7aab4e0cfe239dc5d4c15caf0381c6104188191f78a6640bd8610160523480156200003757600080fd5b5060405162004ca738038062004ca78339810160408190526200005a9162000662565b8686868686868686868686868686858581604051806040016040528060018152602001603160f81b815250826200009781620001ad60201b60201c565b50620000a5826004620001bf565b61012052620000b6816005620001bf565b61014052815160208084019190912060e052815190820120610100524660a0526200014460e05161010051604080517f8b73c3c69bb8fe3d512ecc4cf759cc79239f7b179b0ffacaa9a75d522b39400f60208201529081019290925260608201524660808201523060a082015260009060c00160405160208183030381529060405280519060200120905090565b60805250503060c052506200015d9050600088620001f8565b62000169828262000223565b620001748362000328565b600b620001828582620007dd565b50600c620001918682620007dd565b5050505050505050505050505050505050505050505062000927565b6003620001bb8282620007dd565b5050565b6000602083511015620001df57620001d78362000421565b9050620001f2565b81620001ec8482620007dd565b5060ff90505b92915050565b62000204828262000464565b6000828152600a602052604090206200021e908262000508565b505050565b6127106001600160601b0382161115620002975760405162461bcd60e51b815260206004820152602a60248201527f455243323938313a20726f79616c7479206665652077696c6c206578636565646044820152692073616c65507269636560b01b60648201526084015b60405180910390fd5b6001600160a01b038216620002ef5760405162461bcd60e51b815260206004820152601960248201527f455243323938313a20696e76616c69642072656365697665720000000000000060448201526064016200028e565b604080518082019091526001600160a01b039092168083526001600160601b039091166020909201829052600160a01b90910217600755565b6040516301ffc9a760e01b81526305a3b80960e01b60048201526001600160a01b038216906301ffc9a790602401602060405180830381865afa15801562000374573d6000803e3d6000fd5b505050506040513d601f19601f820116820180604052508101906200039a9190620008a9565b620003b85760405163d6f93fb760e01b815260040160405180910390fd5b600054604080516001600160a01b03928316815291831660208301527f3edc37a14cc8047c7c8a3f354311efe86c14848efd4e3765a3e1e57eea04ea76910160405180910390a1600080546001600160a01b0319166001600160a01b0392909216919091179055565b600080829050601f815111156200044f578260405163305a27a960e01b81526004016200028e9190620008cd565b80516200045c8262000902565b179392505050565b60008281526009602090815260408083206001600160a01b038516845290915290205460ff16620001bb5760008281526009602090815260408083206001600160a01b03851684529091529020805460ff19166001179055620004c43390565b6001600160a01b0316816001600160a01b0316837f2f8788117e7eff1d82e926ec794901d17c78024a50270940304540a733656f0d60405160405180910390a45050565b60006200051f836001600160a01b03841662000526565b9392505050565b60008181526001830160205260408120546200056f57508154600181810184556000848152602080822090930184905584548482528286019093526040902091909155620001f2565b506000620001f2565b80516001600160a01b03811681146200059057600080fd5b919050565b634e487b7160e01b600052604160045260246000fd5b60005b83811015620005c8578181015183820152602001620005ae565b50506000910152565b600082601f830112620005e357600080fd5b81516001600160401b038082111562000600576200060062000595565b604051601f8301601f19908116603f011681019082821181831017156200062b576200062b62000595565b816040528381528660208588010111156200064557600080fd5b62000658846020830160208901620005ab565b9695505050505050565b600080600080600080600060e0888a0312156200067e57600080fd5b620006898862000578565b60208901519097506001600160401b0380821115620006a757600080fd5b620006b58b838c01620005d1565b975060408a0151915080821115620006cc57600080fd5b620006da8b838c01620005d1565b965060608a0151915080821115620006f157600080fd5b50620007008a828b01620005d1565b945050620007116080890162000578565b92506200072160a0890162000578565b60c08901519092506001600160601b03811681146200073f57600080fd5b8091505092959891949750929550565b600181811c908216806200076457607f821691505b6020821081036200078557634e487b7160e01b600052602260045260246000fd5b50919050565b601f8211156200021e57600081815260208120601f850160051c81016020861015620007b45750805b601f850160051c820191505b81811015620007d557828155600101620007c0565b505050505050565b81516001600160401b03811115620007f957620007f962000595565b62000811816200080a84546200074f565b846200078b565b602080601f831160018114620008495760008415620008305750858301515b600019600386901b1c1916600185901b178555620007d5565b600085815260208120601f198616915b828110156200087a5788860151825594840194600190910190840162000859565b5085821015620008995787850151600019600388901b60f8161c191681555b5050505050600190811b01905550565b600060208284031215620008bc57600080fd5b815180151581146200051f57600080fd5b6020815260008251806020840152620008ee816040850160208701620005ab565b601f01601f19169190910160400192915050565b80516020808301519190811015620007855760001960209190910360031b1b16919050565b60805160a05160c05160e0516101005161012051610140516101605161431a6200098d6000396000611bdb01526000610c6a01526000610c3f015260006113c60152600061139e015260006112f9015260006113230152600061134d015261431a6000f3fe608060405234801561001057600080fd5b506004361061023c5760003560e01c80636c0360eb1161013b578063bd85b039116100b8578063d6b0b3f11161007c578063d6b0b3f11461056a578063e8a3d4851461057d578063e985e9c514610585578063f242432a146105c1578063f5298aca146105d457600080fd5b8063bd85b039146104fc578063c39dfed81461051c578063ca15c8731461052f578063d539139314610542578063d547741f1461055757600080fd5b806391d14854116100ff57806391d14854146104a8578063938e3d7b146104bb578063a217fddf146104ce578063a22cb465146104d6578063a7012816146104e957600080fd5b80636c0360eb146104365780637ecebe001461043e57806384b0196e14610467578063885e7a08146104825780639010d07c1461049557600080fd5b80633644e515116101c95780634f558e791161018d5780634f558e79146103c857806355f804b3146103ea5780635cfa9297146103fd57806369e2f0fb146104105780636b20c4541461042357600080fd5b80633644e5151461036757806336568abe1461036f5780633dd1eb6114610382578063439aed34146103955780634e1273f4146103a857600080fd5b806329326f291161021057806329326f29146102cd5780632a55205a146102f85780632eb2c2d61461032a5780632f2ff15d1461033f57806331ae450b1461035257600080fd5b8062fdd58e1461024157806301ffc9a7146102675780630e89341c1461028a578063248a9ca3146102aa575b600080fd5b61025461024f366004613267565b6105e7565b6040519081526020015b60405180910390f35b61027a6102753660046132a7565b610682565b604051901515815260200161025e565b61029d6102983660046132c4565b61068d565b60405161025e919061332d565b6102546102b83660046132c4565b60009081526009602052604090206001015490565b6000546102e0906001600160a01b031681565b6040516001600160a01b03909116815260200161025e565b61030b610306366004613340565b610721565b604080516001600160a01b03909316835260208301919091520161025e565b61033d6103383660046134b5565b6107cf565b005b61033d61034d36600461355e565b61081b565b61035a610845565b60405161025e919061358a565b6102546108f3565b61033d61037d36600461355e565b610902565b61033d6103903660046135d7565b610980565b61033d6103a3366004613609565b6109a3565b6103bb6103b6366004613645565b6109cc565b60405161025e919061374a565b61027a6103d63660046132c4565b6000908152600d6020526040902054151590565b61033d6103f836600461375d565b610af5565b61033d61040b3660046137ad565b610b15565b61033d61041e3660046135d7565b610b39565b61033d61043136600461380d565b610b5c565b61029d610b9f565b61025461044c3660046135d7565b6001600160a01b031660009081526006602052604090205490565b61046f610c31565b60405161025e9796959493929190613880565b61033d6104903660046138f0565b610cba565b6102e06104a3366004613340565b610ccf565b61027a6104b636600461355e565b610cee565b61033d6104c936600461375d565b610d19565b610254600081565b61033d6104e4366004613928565b610d30565b61033d6104f73660046139a3565b610d6f565b61025461050a3660046132c4565b6000908152600d602052604090205490565b61033d61052a366004613a07565b610dcf565b61025461053d3660046132c4565b610e60565b6102546a4d494e5445525f524f4c4560a81b81565b61033d61056536600461355e565b610e77565b61033d610578366004613aa9565b610e9c565b61029d610f80565b61027a610593366004613b16565b6001600160a01b03918216600090815260026020908152604080832093909416825291909152205460ff1690565b61033d6105cf366004613b40565b61100e565b61033d6105e2366004613b98565b611053565b60006001600160a01b0383166106575760405162461bcd60e51b815260206004820152602a60248201527f455243313135353a2061646472657373207a65726f206973206e6f742061207660448201526930b634b21037bbb732b960b11b60648201526084015b60405180910390fd5b5060008181526001602090815260408083206001600160a01b03861684529091529020545b92915050565b600061067c82611096565b6060600c805461069c90613bcb565b80601f01602080910402602001604051908101604052809291908181526020018280546106c890613bcb565b80156107155780601f106106ea57610100808354040283529160200191610715565b820191906000526020600020905b8154815290600101906020018083116106f857829003601f168201915b50505050509050919050565b60008281526008602090815260408083208151808301909252546001600160a01b038116808352600160a01b9091046001600160601b03169282019290925282916107965750604080518082019091526007546001600160a01b0381168252600160a01b90046001600160601b031660208201525b6020810151600090612710906107b5906001600160601b031687613c1b565b6107bf9190613c32565b91519350909150505b9250929050565b6001600160a01b0385163314806107eb57506107eb8533610593565b6108075760405162461bcd60e51b815260040161064e90613c54565b61081485858585856110bb565b5050505050565b600082815260096020526040902060010154610836816112bd565b61084083836112ca565b505050565b6060600061085281610e60565b90506000816001600160401b0381111561086e5761086e613362565b604051908082528060200260200182016040528015610897578160200160208202803683370190505b50905060005b828110156108ec576108b0600082610ccf565b8282815181106108c2576108c2613ca2565b6001600160a01b0390921660209283029190910190910152806108e481613cb8565b91505061089d565b5092915050565b60006108fd6112ec565b905090565b6001600160a01b03811633146109725760405162461bcd60e51b815260206004820152602f60248201527f416363657373436f6e74726f6c3a2063616e206f6e6c792072656e6f756e636560448201526e103937b632b9903337b91039b2b63360891b606482015260840161064e565b61097c828261141a565b5050565b600061098b816112bd565b61097c6a4d494e5445525f524f4c4560a81b8361081b565b6a4d494e5445525f524f4c4560a81b6109bb816112bd565b6109c684848461143c565b50505050565b60608151835114610a315760405162461bcd60e51b815260206004820152602960248201527f455243313135353a206163636f756e747320616e6420696473206c656e677468604482015268040dad2e6dac2e8c6d60bb1b606482015260840161064e565b600083516001600160401b03811115610a4c57610a4c613362565b604051908082528060200260200182016040528015610a75578160200160208202803683370190505b50905060005b8451811015610aed57610ac0858281518110610a9957610a99613ca2565b6020026020010151858381518110610ab357610ab3613ca2565b60200260200101516105e7565b828281518110610ad257610ad2613ca2565b6020908102919091010152610ae681613cb8565b9050610a7b565b509392505050565b6000610b00816112bd565b610b0982611507565b600c6108408382613d17565b6a4d494e5445525f524f4c4560a81b610b2d816112bd565b61081485858585611513565b6000610b44816112bd565b61097c6a4d494e5445525f524f4c4560a81b83610e77565b6001600160a01b038316331480610b785750610b788333610593565b610b945760405162461bcd60e51b815260040161064e90613c54565b6108408383836115f5565b6060600c8054610bae90613bcb565b80601f0160208091040260200160405190810160405280929190818152602001828054610bda90613bcb565b8015610c275780601f10610bfc57610100808354040283529160200191610c27565b820191906000526020600020905b815481529060010190602001808311610c0a57829003601f168201915b5050505050905090565b600060608082808083610c657f00000000000000000000000000000000000000000000000000000000000000006004611794565b610c907f00000000000000000000000000000000000000000000000000000000000000006005611794565b60408051600080825260208201909252600f60f81b9b939a50919850469750309650945092509050565b6000610cc5816112bd565b610840838361183f565b6000828152600a60205260408120610ce790836118f9565b9392505050565b60009182526009602090815260408084206001600160a01b0393909316845291905290205460ff1690565b6000610d24816112bd565b600b6108408382613d17565b610d486a4d494e5445525f524f4c4560a81b33610cee565b610d655760405163892ea3df60e01b815260040160405180910390fd5b61097c8282611905565b6a4d494e5445525f524f4c4560a81b610d87816112bd565b60005b84811015610dc757610db5868683818110610da757610da7613ca2565b90506020020135858561143c565b80610dbf81613cb8565b915050610d8a565b505050505050565b6a4d494e5445525f524f4c4560a81b610de7816112bd565b610e578787878080602002602001604051908101604052809392919081815260200183836020028082843760009201919091525050604080516020808b0282810182019093528a82529093508a925089918291850190849080828437600092019190915250889250611a56915050565b50505050505050565b6000818152600a6020526040812061067c90611bb1565b600082815260096020526040902060010154610e92816112bd565b610840838361141a565b42821015610ebd5760405163068568f360e21b815260040160405180910390fd5b6000610ecb85878686611bbb565b9050610ed8868284611c6d565b15610eee57610ee8868686611d77565b50610814565b60008251604003610f3557610f2e82610f0a8560006020611e57565b610f1390613dd6565b610f208660206040611e57565b610f2990613dd6565b611f64565b9050610f61565b8251604103610f4857610f2e8284611f81565b604051638baa579f60e01b815260040160405180910390fd5b610f6b8188611f9d565b15610f4857610f7b878787611d77565b610e57565b600b8054610f8d90613bcb565b80601f0160208091040260200160405190810160405280929190818152602001828054610fb990613bcb565b80156110065780601f10610fdb57610100808354040283529160200191611006565b820191906000526020600020905b815481529060010190602001808311610fe957829003601f168201915b505050505081565b6001600160a01b03851633148061102a575061102a8533610593565b6110465760405162461bcd60e51b815260040161064e90613c54565b6108148585858585611fc4565b6001600160a01b03831633148061106f575061106f8333610593565b61108b5760405162461bcd60e51b815260040161064e90613c54565b6108408383836121c6565b60006001600160e01b03198216635a05180f60e01b148061067c575061067c826122e2565b848433321480159061113657506000546040516305a3b80960e01b81523360048201526001600160a01b03909116906305a3b80990602401602060405180830381865afa158015611110573d6000803e3d6000fd5b505050506040513d601f19601f820116820180604052508101906111349190613dfa565b155b156111565760405163937db65f60e01b815233600482015260240161064e565b6001600160a01b0382163b158015906111da57506000546040516305a3b80960e01b81526001600160a01b038481166004830152909116906305a3b80990602401602060405180830381865afa1580156111b4573d6000803e3d6000fd5b505050506040513d601f19601f820116820180604052508101906111d89190613dfa565b155b156112035760405163f934453160e01b81526001600160a01b038316600482015260240161064e565b6001600160a01b0381163b1580159061128757506000546040516305a3b80960e01b81526001600160a01b038381166004830152909116906305a3b80990602401602060405180830381865afa158015611261573d6000803e3d6000fd5b505050506040513d601f19601f820116820180604052508101906112859190613dfa565b155b156112b057604051632a67242160e11b81526001600160a01b038216600482015260240161064e565b610e578787878787612307565b6112c781336124ac565b50565b6112d48282612505565b6000828152600a60205260409020610840908261258b565b6000306001600160a01b037f00000000000000000000000000000000000000000000000000000000000000001614801561134557507f000000000000000000000000000000000000000000000000000000000000000046145b1561136f57507f000000000000000000000000000000000000000000000000000000000000000090565b6108fd604080517f8b73c3c69bb8fe3d512ecc4cf759cc79239f7b179b0ffacaa9a75d522b39400f60208201527f0000000000000000000000000000000000000000000000000000000000000000918101919091527f000000000000000000000000000000000000000000000000000000000000000060608201524660808201523060a082015260009060c00160405160208183030381529060405280519060200120905090565b90565b61142482826125a0565b6000828152600a602052604090206108409082612607565b6127106001600160601b03821611156114675760405162461bcd60e51b815260040161064e90613e17565b6001600160a01b0382166114bd5760405162461bcd60e51b815260206004820152601b60248201527f455243323938313a20496e76616c696420706172616d65746572730000000000604482015260640161064e565b6040805180820182526001600160a01b0393841681526001600160601b0392831660208083019182526000968752600890529190942093519051909116600160a01b029116179055565b600361097c8282613d17565b6001600160a01b0384166115395760405162461bcd60e51b815260040161064e90613e61565b3360006115458561261c565b905060006115528561261c565b905061156383600089858589612667565b60008681526001602090815260408083206001600160a01b038b16845290915281208054879290611595908490613ea2565b909155505060408051878152602081018790526001600160a01b03808a1692600092918716917fc3d58168c5ae7397731d063d5bbf3d657854427343f4c083240f7aacaa2d0f62910160405180910390a4610e57836000898989896126aa565b6001600160a01b03831661161b5760405162461bcd60e51b815260040161064e90613eb5565b805182511461163c5760405162461bcd60e51b815260040161064e90613ef8565b600033905061165f81856000868660405180602001604052806000815250612667565b60005b835181101561172757600084828151811061167f5761167f613ca2565b60200260200101519050600084838151811061169d5761169d613ca2565b60209081029190910181015160008481526001835260408082206001600160a01b038c1683529093529190912054909150818110156116ee5760405162461bcd60e51b815260040161064e90613f40565b60009283526001602090815260408085206001600160a01b038b168652909152909220910390558061171f81613cb8565b915050611662565b5060006001600160a01b0316846001600160a01b0316826001600160a01b03167f4a39dc06d4c0dbc64b70af90fd698a233a518aa5d07e595d983b8c0526c8f7fb8686604051611778929190613f84565b60405180910390a46040805160208101909152600090526109c6565b606060ff83146117ae576117a783612805565b905061067c565b8180546117ba90613bcb565b80601f01602080910402602001604051908101604052809291908181526020018280546117e690613bcb565b80156118335780601f1061180857610100808354040283529160200191611833565b820191906000526020600020905b81548152906001019060200180831161181657829003601f168201915b5050505050905061067c565b6127106001600160601b038216111561186a5760405162461bcd60e51b815260040161064e90613e17565b6001600160a01b0382166118c05760405162461bcd60e51b815260206004820152601960248201527f455243323938313a20696e76616c696420726563656976657200000000000000604482015260640161064e565b604080518082019091526001600160a01b039092168083526001600160601b039091166020909201829052600160a01b90910217600755565b6000610ce78383612844565b81333b1580159061197f57506000546040516305a3b80960e01b81523360048201526001600160a01b03909116906305a3b80990602401602060405180830381865afa158015611959573d6000803e3d6000fd5b505050506040513d601f19601f8201168201806040525081019061197d9190613dfa565b155b1561199f5760405163f6fa4cbd60e01b815233600482015260240161064e565b6001600160a01b0381163b15801590611a2357506000546040516305a3b80960e01b81526001600160a01b038381166004830152909116906305a3b80990602401602060405180830381865afa1580156119fd573d6000803e3d6000fd5b505050506040513d601f19601f82011682018060405250810190611a219190613dfa565b155b15611a4c576040516341b8d58160e11b81526001600160a01b038216600482015260240161064e565b610840838361286e565b6001600160a01b038416611a7c5760405162461bcd60e51b815260040161064e90613e61565b8151835114611a9d5760405162461bcd60e51b815260040161064e90613ef8565b33611aad81600087878787612667565b60005b8451811015611b4957838181518110611acb57611acb613ca2565b602002602001015160016000878481518110611ae957611ae9613ca2565b602002602001015181526020019081526020016000206000886001600160a01b03166001600160a01b031681526020019081526020016000206000828254611b319190613ea2565b90915550819050611b4181613cb8565b915050611ab0565b50846001600160a01b031660006001600160a01b0316826001600160a01b03167f4a39dc06d4c0dbc64b70af90fd698a233a518aa5d07e595d983b8c0526c8f7fb8787604051611b9a929190613f84565b60405180910390a461081481600087878787612879565b600061067c825490565b6001600160a01b03831660009081526006602052604081208054611c64917f00000000000000000000000000000000000000000000000000000000000000009187918991889187611c0b83613cb8565b909155506040805160208101969096526001600160a01b03948516908601529290911660608401521515608083015260a082015260c0810184905260e00160405160208183030381529060405280519060200120612934565b95945050505050565b6000806000856001600160a01b0316631626ba7e60e01b8686604051602401611c97929190613fa9565b60408051601f198184030181529181526020820180516001600160e01b03166001600160e01b0319909416939093179092529051611cd59190613fc2565b600060405180830381855afa9150503d8060008114611d10576040519150601f19603f3d011682016040523d82523d6000602084013e611d15565b606091505b5091509150818015611d28575080516020145b15611d6b57600081806020019051810190611d439190613fde565b90506374eca2c160e11b6001600160e01b0319821601611d695760019350505050610ce7565b505b50600095945050505050565b816001600160a01b0316836001600160a01b031603611dea5760405162461bcd60e51b815260206004820152602960248201527f455243313135353a2073657474696e6720617070726f76616c20737461747573604482015268103337b91039b2b63360b91b606482015260840161064e565b6001600160a01b03838116600081815260026020908152604080832094871680845294825291829020805460ff191686151590811790915591519182527f17307eab39ab6107e8899845ad3d59bd9653f200f220920489ca2b5937696c31910160405180910390a3505050565b606081611e6581601f613ea2565b1015611ea45760405162461bcd60e51b815260206004820152600e60248201526d736c6963655f6f766572666c6f7760901b604482015260640161064e565b611eae8284613ea2565b84511015611ef25760405162461bcd60e51b8152602060048201526011602482015270736c6963655f6f75744f66426f756e647360781b604482015260640161064e565b606082158015611f115760405191506000825260208201604052611f5b565b6040519150601f8416801560200281840101858101878315602002848b0101015b81831015611f4a578051835260209283019201611f32565b5050858452601f01601f1916604052505b50949350505050565b6000806000611f74868686612961565b91509150611f5b8161299a565b6000806000611f908585612ae4565b91509150610aed8161299a565b60006001600160a01b03831615801590610ce75750506001600160a01b0391821691161490565b848433321480159061203f57506000546040516305a3b80960e01b81523360048201526001600160a01b03909116906305a3b80990602401602060405180830381865afa158015612019573d6000803e3d6000fd5b505050506040513d601f19601f8201168201806040525081019061203d9190613dfa565b155b1561205f5760405163937db65f60e01b815233600482015260240161064e565b6001600160a01b0382163b158015906120e357506000546040516305a3b80960e01b81526001600160a01b038481166004830152909116906305a3b80990602401602060405180830381865afa1580156120bd573d6000803e3d6000fd5b505050506040513d601f19601f820116820180604052508101906120e19190613dfa565b155b1561210c5760405163f934453160e01b81526001600160a01b038316600482015260240161064e565b6001600160a01b0381163b1580159061219057506000546040516305a3b80960e01b81526001600160a01b038381166004830152909116906305a3b80990602401602060405180830381865afa15801561216a573d6000803e3d6000fd5b505050506040513d601f19601f8201168201806040525081019061218e9190613dfa565b155b156121b957604051632a67242160e11b81526001600160a01b038216600482015260240161064e565b610e578787878787612b26565b6001600160a01b0383166121ec5760405162461bcd60e51b815260040161064e90613eb5565b3360006121f88461261c565b905060006122058461261c565b905061222583876000858560405180602001604052806000815250612667565b60008581526001602090815260408083206001600160a01b038a168452909152902054848110156122685760405162461bcd60e51b815260040161064e90613f40565b60008681526001602090815260408083206001600160a01b038b81168086529184528285208a8703905582518b81529384018a90529092908816917fc3d58168c5ae7397731d063d5bbf3d657854427343f4c083240f7aacaa2d0f62910160405180910390a4604080516020810190915260009052610e57565b60006001600160e01b03198216637965db0b60e01b148061067c575061067c82612c62565b81518351146123285760405162461bcd60e51b815260040161064e90613ef8565b6001600160a01b03841661234e5760405162461bcd60e51b815260040161064e90613ffb565b3361235d818787878787612667565b60005b845181101561244657600085828151811061237d5761237d613ca2565b60200260200101519050600085838151811061239b5761239b613ca2565b60209081029190910181015160008481526001835260408082206001600160a01b038e1683529093529190912054909150818110156123ec5760405162461bcd60e51b815260040161064e90614040565b60008381526001602090815260408083206001600160a01b038e8116855292528083208585039055908b1682528120805484929061242b908490613ea2565b925050819055505050508061243f90613cb8565b9050612360565b50846001600160a01b0316866001600160a01b0316826001600160a01b03167f4a39dc06d4c0dbc64b70af90fd698a233a518aa5d07e595d983b8c0526c8f7fb8787604051612496929190613f84565b60405180910390a4610dc7818787878787612879565b6124b68282610cee565b61097c576124c381612c87565b6124ce836020612c99565b6040516020016124df92919061408a565b60408051601f198184030181529082905262461bcd60e51b825261064e9160040161332d565b61250f8282610cee565b61097c5760008281526009602090815260408083206001600160a01b03851684529091529020805460ff191660011790556125473390565b6001600160a01b0316816001600160a01b0316837f2f8788117e7eff1d82e926ec794901d17c78024a50270940304540a733656f0d60405160405180910390a45050565b6000610ce7836001600160a01b038416612e34565b6125aa8282610cee565b1561097c5760008281526009602090815260408083206001600160a01b0385168085529252808320805460ff1916905551339285917ff6391f5c32d9c69d2a47ea670b442974b53935d1edc7fd64eb21e047a839171b9190a45050565b6000610ce7836001600160a01b038416612e83565b6040805160018082528183019092526060916000919060208083019080368337019050509050828160008151811061265657612656613ca2565b602090810291909101015292915050565b61267f6a4d494e5445525f524f4c4560a81b33610cee565b61269c5760405163892ea3df60e01b815260040160405180910390fd5b610dc7868686868686612f76565b6001600160a01b0384163b15610dc75760405163f23a6e6160e01b81526001600160a01b0385169063f23a6e61906126ee90899089908890889088906004016140ff565b6020604051808303816000875af1925050508015612729575060408051601f3d908101601f1916820190925261272691810190613fde565b60015b6127d557612735614144565b806308c379a00361276e575061274961415f565b806127545750612770565b8060405162461bcd60e51b815260040161064e919061332d565b505b60405162461bcd60e51b815260206004820152603460248201527f455243313135353a207472616e7366657220746f206e6f6e2d455243313135356044820152732932b1b2b4bb32b91034b6b83632b6b2b73a32b960611b606482015260840161064e565b6001600160e01b0319811663f23a6e6160e01b14610e575760405162461bcd60e51b815260040161064e906141e8565b60606000612812836130ef565b604080516020808252818301909252919250600091906020820181803683375050509182525060208101929092525090565b600082600001828154811061285b5761285b613ca2565b9060005260206000200154905092915050565b61097c338383611d77565b6001600160a01b0384163b15610dc75760405163bc197c8160e01b81526001600160a01b0385169063bc197c81906128bd9089908990889088908890600401614230565b6020604051808303816000875af19250505080156128f8575060408051601f3d908101601f191682019092526128f591810190613fde565b60015b61290457612735614144565b6001600160e01b0319811663bc197c8160e01b14610e575760405162461bcd60e51b815260040161064e906141e8565b600061067c6129416112ec565b8360405161190160f01b8152600281019290925260228201526042902090565b6000806001600160ff1b0383168161297e60ff86901c601b613ea2565b905061298c87828885613117565b935093505050935093915050565b60008160048111156129ae576129ae61428e565b036129b65750565b60018160048111156129ca576129ca61428e565b03612a175760405162461bcd60e51b815260206004820152601860248201527f45434453413a20696e76616c6964207369676e61747572650000000000000000604482015260640161064e565b6002816004811115612a2b57612a2b61428e565b03612a785760405162461bcd60e51b815260206004820152601f60248201527f45434453413a20696e76616c6964207369676e6174757265206c656e67746800604482015260640161064e565b6003816004811115612a8c57612a8c61428e565b036112c75760405162461bcd60e51b815260206004820152602260248201527f45434453413a20696e76616c6964207369676e6174757265202773272076616c604482015261756560f01b606482015260840161064e565b6000808251604103612b1a5760208301516040840151606085015160001a612b0e87828585613117565b945094505050506107c8565b506000905060026107c8565b6001600160a01b038416612b4c5760405162461bcd60e51b815260040161064e90613ffb565b336000612b588561261c565b90506000612b658561261c565b9050612b75838989858589612667565b60008681526001602090815260408083206001600160a01b038c16845290915290205485811015612bb85760405162461bcd60e51b815260040161064e90614040565b60008781526001602090815260408083206001600160a01b038d8116855292528083208985039055908a16825281208054889290612bf7908490613ea2565b909155505060408051888152602081018890526001600160a01b03808b16928c821692918816917fc3d58168c5ae7397731d063d5bbf3d657854427343f4c083240f7aacaa2d0f62910160405180910390a4612c57848a8a8a8a8a6126aa565b505050505050505050565b60006001600160e01b0319821663152a902d60e11b148061067c575061067c826131db565b606061067c6001600160a01b03831660145b60606000612ca8836002613c1b565b612cb3906002613ea2565b6001600160401b03811115612cca57612cca613362565b6040519080825280601f01601f191660200182016040528015612cf4576020820181803683370190505b509050600360fc1b81600081518110612d0f57612d0f613ca2565b60200101906001600160f81b031916908160001a905350600f60fb1b81600181518110612d3e57612d3e613ca2565b60200101906001600160f81b031916908160001a9053506000612d62846002613c1b565b612d6d906001613ea2565b90505b6001811115612de5576f181899199a1a9b1b9c1cb0b131b232b360811b85600f1660108110612da157612da1613ca2565b1a60f81b828281518110612db757612db7613ca2565b60200101906001600160f81b031916908160001a90535060049490941c93612dde816142a4565b9050612d70565b508315610ce75760405162461bcd60e51b815260206004820181905260248201527f537472696e67733a20686578206c656e67746820696e73756666696369656e74604482015260640161064e565b6000818152600183016020526040812054612e7b5750815460018181018455600084815260208082209093018490558454848252828601909352604090209190915561067c565b50600061067c565b60008181526001830160205260408120548015612f6c576000612ea76001836142bb565b8554909150600090612ebb906001906142bb565b9050818114612f20576000866000018281548110612edb57612edb613ca2565b9060005260206000200154905080876000018481548110612efe57612efe613ca2565b6000918252602080832090910192909255918252600188019052604090208390555b8554869080612f3157612f316142ce565b60019003818190600052602060002001600090559055856001016000868152602001908152602001600020600090556001935050505061067c565b600091505061067c565b6001600160a01b038516612ffd5760005b8351811015612ffb57828181518110612fa257612fa2613ca2565b6020026020010151600d6000868481518110612fc057612fc0613ca2565b602002602001015181526020019081526020016000206000828254612fe59190613ea2565b90915550612ff4905081613cb8565b9050612f87565b505b6001600160a01b038416610dc75760005b8351811015610e5757600084828151811061302b5761302b613ca2565b60200260200101519050600084838151811061304957613049613ca2565b602002602001015190506000600d6000848152602001908152602001600020549050818110156130cc5760405162461bcd60e51b815260206004820152602860248201527f455243313135353a206275726e20616d6f756e74206578636565647320746f74604482015267616c537570706c7960c01b606482015260840161064e565b6000928352600d6020526040909220910390556130e881613cb8565b905061300e565b600060ff8216601f81111561067c57604051632cd44ac360e21b815260040160405180910390fd5b6000807f7fffffffffffffffffffffffffffffff5d576e7357a4501ddfe92f46681b20a083111561314e57506000905060036131d2565b6040805160008082526020820180845289905260ff881692820192909252606081018690526080810185905260019060a0016020604051602081039080840390855afa1580156131a2573d6000803e3d6000fd5b5050604051601f1901519150506001600160a01b0381166131cb576000600192509250506131d2565b9150600090505b94509492505050565b60006001600160e01b0319821663278eba3960e21b148061067c575061067c8260006001600160e01b03198216636cdb3d1360e11b148061322c57506001600160e01b031982166303a24d0760e21b145b8061067c57506301ffc9a760e01b6001600160e01b031983161461067c565b80356001600160a01b038116811461326257600080fd5b919050565b6000806040838503121561327a57600080fd5b6132838361324b565b946020939093013593505050565b6001600160e01b0319811681146112c757600080fd5b6000602082840312156132b957600080fd5b8135610ce781613291565b6000602082840312156132d657600080fd5b5035919050565b60005b838110156132f85781810151838201526020016132e0565b50506000910152565b600081518084526133198160208601602086016132dd565b601f01601f19169290920160200192915050565b602081526000610ce76020830184613301565b6000806040838503121561335357600080fd5b50508035926020909101359150565b634e487b7160e01b600052604160045260246000fd5b601f8201601f191681016001600160401b038111828210171561339d5761339d613362565b6040525050565b60006001600160401b038211156133bd576133bd613362565b5060051b60200190565b600082601f8301126133d857600080fd5b813560206133e5826133a4565b6040516133f28282613378565b83815260059390931b850182019282810191508684111561341257600080fd5b8286015b8481101561342d5780358352918301918301613416565b509695505050505050565b60006001600160401b0383111561345157613451613362565b604051613468601f8501601f191660200182613378565b80915083815284848401111561347d57600080fd5b83836020830137600060208583010152509392505050565b600082601f8301126134a657600080fd5b610ce783833560208501613438565b600080600080600060a086880312156134cd57600080fd5b6134d68661324b565b94506134e46020870161324b565b935060408601356001600160401b038082111561350057600080fd5b61350c89838a016133c7565b9450606088013591508082111561352257600080fd5b61352e89838a016133c7565b9350608088013591508082111561354457600080fd5b5061355188828901613495565b9150509295509295909350565b6000806040838503121561357157600080fd5b823591506135816020840161324b565b90509250929050565b6020808252825182820181905260009190848201906040850190845b818110156135cb5783516001600160a01b0316835292840192918401916001016135a6565b50909695505050505050565b6000602082840312156135e957600080fd5b610ce78261324b565b80356001600160601b038116811461326257600080fd5b60008060006060848603121561361e57600080fd5b8335925061362e6020850161324b565b915061363c604085016135f2565b90509250925092565b6000806040838503121561365857600080fd5b82356001600160401b038082111561366f57600080fd5b818501915085601f83011261368357600080fd5b81356020613690826133a4565b60405161369d8282613378565b83815260059390931b85018201928281019150898411156136bd57600080fd5b948201945b838610156136e2576136d38661324b565b825294820194908201906136c2565b965050860135925050808211156136f857600080fd5b50613705858286016133c7565b9150509250929050565b600081518084526020808501945080840160005b8381101561373f57815187529582019590820190600101613723565b509495945050505050565b602081526000610ce7602083018461370f565b60006020828403121561376f57600080fd5b81356001600160401b0381111561378557600080fd5b8201601f8101841361379657600080fd5b6137a584823560208401613438565b949350505050565b600080600080608085870312156137c357600080fd5b6137cc8561324b565b9350602085013592506040850135915060608501356001600160401b038111156137f557600080fd5b61380187828801613495565b91505092959194509250565b60008060006060848603121561382257600080fd5b61382b8461324b565b925060208401356001600160401b038082111561384757600080fd5b613853878388016133c7565b9350604086013591508082111561386957600080fd5b50613876868287016133c7565b9150509250925092565b60ff60f81b8816815260e06020820152600061389f60e0830189613301565b82810360408401526138b18189613301565b606084018890526001600160a01b038716608085015260a0840186905283810360c085015290506138e2818561370f565b9a9950505050505050505050565b6000806040838503121561390357600080fd5b61390c8361324b565b9150613581602084016135f2565b80151581146112c757600080fd5b6000806040838503121561393b57600080fd5b6139448361324b565b915060208301356139548161391a565b809150509250929050565b60008083601f84011261397157600080fd5b5081356001600160401b0381111561398857600080fd5b6020830191508360208260051b85010111156107c857600080fd5b600080600080606085870312156139b957600080fd5b84356001600160401b038111156139cf57600080fd5b6139db8782880161395f565b90955093506139ee90506020860161324b565b91506139fc604086016135f2565b905092959194509250565b60008060008060008060808789031215613a2057600080fd5b613a298761324b565b955060208701356001600160401b0380821115613a4557600080fd5b613a518a838b0161395f565b90975095506040890135915080821115613a6a57600080fd5b613a768a838b0161395f565b90955093506060890135915080821115613a8f57600080fd5b50613a9c89828a01613495565b9150509295509295509295565b600080600080600060a08688031215613ac157600080fd5b613aca8661324b565b9450613ad86020870161324b565b93506040860135613ae88161391a565b92506060860135915060808601356001600160401b03811115613b0a57600080fd5b61355188828901613495565b60008060408385031215613b2957600080fd5b613b328361324b565b91506135816020840161324b565b600080600080600060a08688031215613b5857600080fd5b613b618661324b565b9450613b6f6020870161324b565b9350604086013592506060860135915060808601356001600160401b03811115613b0a57600080fd5b600080600060608486031215613bad57600080fd5b613bb68461324b565b95602085013595506040909401359392505050565b600181811c90821680613bdf57607f821691505b602082108103613bff57634e487b7160e01b600052602260045260246000fd5b50919050565b634e487b7160e01b600052601160045260246000fd5b808202811582820484141761067c5761067c613c05565b600082613c4f57634e487b7160e01b600052601260045260246000fd5b500490565b6020808252602e908201527f455243313135353a2063616c6c6572206973206e6f7420746f6b656e206f776e60408201526d195c881bdc88185c1c1c9bdd995960921b606082015260800190565b634e487b7160e01b600052603260045260246000fd5b600060018201613cca57613cca613c05565b5060010190565b601f82111561084057600081815260208120601f850160051c81016020861015613cf85750805b601f850160051c820191505b81811015610dc757828155600101613d04565b81516001600160401b03811115613d3057613d30613362565b613d4481613d3e8454613bcb565b84613cd1565b602080601f831160018114613d795760008415613d615750858301515b600019600386901b1c1916600185901b178555610dc7565b600085815260208120601f198616915b82811015613da857888601518255948401946001909101908401613d89565b5085821015613dc65787850151600019600388901b60f8161c191681555b5050505050600190811b01905550565b80516020808301519190811015613bff5760001960209190910360031b1b16919050565b600060208284031215613e0c57600080fd5b8151610ce78161391a565b6020808252602a908201527f455243323938313a20726f79616c7479206665652077696c6c206578636565646040820152692073616c65507269636560b01b606082015260800190565b60208082526021908201527f455243313135353a206d696e7420746f20746865207a65726f206164647265736040820152607360f81b606082015260800190565b8082018082111561067c5761067c613c05565b60208082526023908201527f455243313135353a206275726e2066726f6d20746865207a65726f206164647260408201526265737360e81b606082015260800190565b60208082526028908201527f455243313135353a2069647320616e6420616d6f756e7473206c656e677468206040820152670dad2e6dac2e8c6d60c31b606082015260800190565b60208082526024908201527f455243313135353a206275726e20616d6f756e7420657863656564732062616c604082015263616e636560e01b606082015260800190565b604081526000613f97604083018561370f565b8281036020840152611c64818561370f565b8281526040602082015260006137a56040830184613301565b60008251613fd48184602087016132dd565b9190910192915050565b600060208284031215613ff057600080fd5b8151610ce781613291565b60208082526025908201527f455243313135353a207472616e7366657220746f20746865207a65726f206164604082015264647265737360d81b606082015260800190565b6020808252602a908201527f455243313135353a20696e73756666696369656e742062616c616e636520666f60408201526939103a3930b739b332b960b11b606082015260800190565b7f416363657373436f6e74726f6c3a206163636f756e74200000000000000000008152600083516140c28160178501602088016132dd565b7001034b99036b4b9b9b4b733903937b6329607d1b60179184019182015283516140f38160288401602088016132dd565b01602801949350505050565b6001600160a01b03868116825285166020820152604081018490526060810183905260a06080820181905260009061413990830184613301565b979650505050505050565b600060033d11156114175760046000803e5060005160e01c90565b600060443d101561416d5790565b6040516003193d81016004833e81513d6001600160401b03816024840111818411171561419c57505050505090565b82850191508151818111156141b45750505050505090565b843d87010160208285010111156141ce5750505050505090565b6141dd60208286010187613378565b509095945050505050565b60208082526028908201527f455243313135353a204552433131353552656365697665722072656a656374656040820152676420746f6b656e7360c01b606082015260800190565b6001600160a01b0386811682528516602082015260a06040820181905260009061425c9083018661370f565b828103606084015261426e818661370f565b905082810360808401526142828185613301565b98975050505050505050565b634e487b7160e01b600052602160045260246000fd5b6000816142b3576142b3613c05565b506000190190565b8181038181111561067c5761067c613c05565b634e487b7160e01b600052603160045260246000fdfea2646970667358221220152e48929e38f84aa07e823eeb360c5368085f9fe588acc9ee0b9ead499b730d64736f6c63430008130033",
  "linkReferences": {},
  "deployedLinkReferences": {}
}